:020000040800F2
:1000000000000120E9200008391F00083B1F0008FC
:100010003D1F00083F1F0008411F000800000000AE
:10002000000000000000000000000000431F000866
:10003000451F000800000000471F0008491F000876
:100040003121000831210008312100083121000848
:100050003121000831210008312100083121000838
:100060003121000831210008312100083121000828
:100070003121000831210008312100083121000818
:1000800031210008551F00083121000831210008E6
:1000900031210008312100083121000831210008F8
:1000A00031210008312100083121000831210008E8
:1000B00031210008312100083121000831210008D8
:1000C00031210008312100083121000831210008C8
:1000D00031210008312100083121000831210008B8
:1000E00031210008312100083121000831210008A8
:1000F0003121000831210008312100083121000898
:100100003121000831210008312100083121000887
:100110003121000831210008312100083121000877
:100120003121000831210008312100083121000867
:1001300000000000000000000000000000000000BF
:1001400000000000000000000000000000000000AF
:10015000000000000000000000000000000000009F
:10016000000000000000000000000000000000008F
:10017000000000000000000000000000000000007F
:10018000000000000000000000000000000000006F
:10019000000000000000000000000000000000005F
:1001A000000000000000000000000000000000004F
:1001B000000000000000000000000000000000003F
:1001C000000000000000000000000000000000002F
:1001D000000000000000000000000000000000001F
:0401E0005FF8E0F1F3
:1001E40010B5054C237833B9044B13B10448AFF36D
:1001F40000800123237010BD7C000020000000005B
:10020400642A000808B5034B1BB103490348AFF344
:10021400008008BD0000000080000020642A00085F
:10022400034613F8012B002AFBD1181A0138704732
:100234000A4B10B50446186818B183690BB901F06C
:10024400BDFF132C07D8064850F83430013302D0D0
:1002540000EBC40010BD0020FCE700BF1800002024
:1002640008020020F8B5431C054609D101F060FFDF
:1002740013240646002720463946ABBE04463460A4
:100284002846F8BDF8B5054601F052FF132406468A
:10029400002720463946ABBE044634602846F8BDE4
:1002A40030B585B0CDE901010392062401AD2046A5
:1002B4002946ABBE04462046FFF7D4FF05B030BD47
:1002C40070B50E461546FFF7B3FF044630B901F08A
:1002D4002FFF092303604FF0FF3070BD2A463146DB
:1002E4000068FFF7DDFF431C1FBF6368281A1B1853
:1002F4006360F2E7F7B50C461646FFF799FF05462B
:1003040040B901F015FF092303604FF0FF34204684
:1003140003B0F0BD022E03D901F00AFF1623F3E760
:10032400012E12D14368E418F6D42B680A26CDE9CD
:1003340000346F4630463946ABBE06463046FFF7BA
:1003440091FF0028E1DB6C60E1E7022EEDD1036848
:1003540002AF47F8083D0C2630463946ABBE064688
:100364003046FFF77FFF431CCFD00444DDE7FFF79F
:10037400C1BF30B585B0CDE901010392052401ADBB
:1003840020462946ABBE04462046FFF76BFF05B066
:1003940030BD70B50E461546FFF74AFF044630B926
:1003A40001F0C6FE092303604FF0FF3070BD2A46FA
:1003B40031460068FFF7DDFF021EF5DB6368A81A0B
:1003C400034495426360F1D1BDE870400020FFF71B
:1003D40059BF37B502AD45F8040D0224204629461D
:1003E400ABBE04462046FFF73DFF03B030BD00001E
:1003F40038B50546FFF71CFF044630B901F098FEF6
:10040400092303604FF0FF3038BD013D012D09D8A9
:10041400094B9A681B699A4204D14FF0FF33036079
:100424000020F1E72068FFF7D4FF0028ECD14FF05B
:10043400FF332360E8E700BF080200200D4B10B52E
:100444001968024609B90C491960694618680244DA
:100454008A4206D809490A4C0968A14208D08A424E
:1004640006D901F065FE0C2303604FF0FF3010BD88
:100474001A60FCE7F8010020B80200200C000020FC
:10048400ADDEFECA70B50C46FFF7D2FE064630B9A3
:1004940001F04EFE092303604FF0FF3070BD636826
:1004A4000C2543F4005363604FF48063636428466F
:1004B4003146ABBE05462846FFF7D4FE431C1CBF9D
:1004C40020610020EAE70B4610B5002104465822BB
:1004D400184601F021FF01462046BDE81040FFF711
:1004E400D1BF38B50D46044658220021284601F0F4
:1004F40013FF2046002100F011F8431C04460BD0E2
:100504006B68294643F401436B60FFF7BBFF054664
:100514002046FFF76DFF2C46204638BD2B4B2DE9B6
:10052400F04782460E460025984696B053F835406B
:10053400EF00611C36D00135142DF7D101F0F8FD20
:1005440018234FF0FF3403603CE040F20163C6F32C
:100554000044B20748BF44F002041E4218BF44F0EE
:100564000404330748BF24F00404504648BF44F051
:100574000804CDF800A0FFF753FECDE901400124A3
:1005840020464946ABBE0446002C06DB0023474404
:1005940048F835407B602C4614E02046FFF772FE95
:1005A40004460FE006F42063B3F5206FE946CCD18E
:1005B40049465046FFF795FF0130C6D001F0B8FD1B
:1005C40011230360204616B0BDE8F087080200201E
:1005D4002DE9F74307468846294800211546FFF7C9
:1005E4009DFF04462A460021384601F095FE631C0F
:1005F40015D02046FFF71CFE0C268146304649469E
:10060400ABBE06463046FFF72DFE032802DD033855
:10061400A84208DC2046FFF7EBFE4FF0FF342046EB
:1006240003B0BDE8F083042220460DEB0201FFF77E
:1006340047FE0328EEDD9DF80430532BEAD19DF8E4
:100644000530482BE6D19DF80630462BE2D19DF8C3
:100654000730422BDED1012241462046FFF74AFEF5
:100664000028D7DB2A4639462046FFF729FE0546EF
:100674002046FFF7BDFE2846FFF7F4FD0446CEE70B
:10068400A82A000837B500210122094D094C01A808
:1006940029602260FFF79CFF002807DD9DF80430E5
:1006A40003F0010203F002032A60236003B030BDAB
:1006B400100000201400002010B5044C2268002A09
:1006C40001DAFFF7DFFF206810BD00BF140000202F
:1006D4002DE9F04F03230024DFF8AC9085B0CDF86A
:1006E40004900DF104080393012502942846414621
:1006F400ABBE0546204A23464FF0FF3114461F4E39
:10070400356042F833100133142BFAD1FFF7D4FFCC
:100714001B4DD0B14FF0030A0423CDF804900127F8
:10072400CDF80CA0029338464146ABBE8346154B28
:10073400CDF80490C3F800B00823CDF80CA00293C0
:1007440038464146ABBE07462F602B68013302BFD3
:100754000C4B1B682B603368002623606660FFF730
:10076400ABFF30B1074B1B68C4E902362B68C4E900
:10077400043605B0BDE8F08F080200200002002016
:10078400FC01002004020020BE2A000870B5FFF717
:100794004FFD0925044620B901F0CAFC0560204636
:1007A40070BD28462146ABBE0446012CF7D001F0AB
:1007B400BFFC00240646132528462146ABBE054649
:1007C4003560ECE710B504460E4B18784FF47A7395
:1007D400B3FBF0F30C4A1068B0FBF3F000F08CF8B4
:1007E40068B90F2C01D901200AE0002221464FF0FC
:1007F400FF3000F041F8034B5C60002000E0012072
:1008040010BD00BF000000200800002008B5074A02
:10081400136843F010031360032000F01BF800205A
:10082400FFF7D0FF01F0E6FA002008BD00200240E7
:10083400034A1168034B1B780B441360704700BFD5
:10084400B002002000000020014B1868704700BF70
:10085400B0020020074AD36823F4E0631B041B0C96
:10086400000200F4E060184340F0BF6040F4003040
:10087400D060704700ED00E030B4174BDB68C3F381
:100884000223C3F10704042C28BF04241D1D062DD4
:1008940018D9033B4FF0FF3505FA04F421EA0401AB
:1008A400994005FA03F322EA0303194300280BDBFA
:1008B4000901C9B200F1604000F5614080F80013FD
:1008C40030BC70470023E5E700F00F000901C9B20E
:1008D400024B1954F4E700BF00ED00E014ED00E012
:1008E40000F01F02400901239340024A42F82030DD
:1008F400704700BF00E100E00138B0F1807F0AD208
:10090400064B5860064AF02182F8231000209860B4
:1009140007221A6070470120704700BF10E000E012
:1009240000ED00E0042805D0054A136823F0040311
:1009340013607047024A136843F00403136070475E
:1009440010E000E0704708B5FFF7FCFF08BD70B485
:10095400066CC56B0124B4406C6004686360436832
:10096400102B05D0036899600368DA6070BC704787
:1009740003689A600368D960F8E7000000283FD054
:1009840010B4034601681F4A91422ED81E4A0A44F5
:100994001E49A1FB02121209920002641C4AC2639E
:1009A400022283F821201868016821F47F5121F084
:1009B40030015A689C682243DC6822431C69224344
:1009C4005C6922439C692243DC6922430A43026036
:1009D40000209862D862186358639863012283F8F0
:1009E400212083F8200010BC70470A4A0A440749B2
:1009F400A1FB0212120992000264074AC263CFE704
:100A04000120704707040240F8FFFDBFCDCCCCCCD9
:100A140000000240F8FBFDBF0004024038B590F826
:100A24002040012C32D0012480F8204090F821404D
:100A3400012C04D0002380F82030022038BD044665
:100A4400022084F821000020A0632568286820F093
:100A5400010028602046FFF77AFFE36A5BB1226851
:100A6400136843F00E0313602268136843F0010314
:100A740013600020E2E72268136823F00403136084
:100A84002268136843F00A031360EDE70220D5E7F8
:100A940038B5C36B1A6804682568016C04238B405D
:100AA400134200F09B8015F0040F00F09780236838
:100AB40013F0200F03D1236823F004032360036899
:100AC400AA4A934246D9783A934224D014329342A4
:100AD40028D01432934227D01432934227D01432B0
:100AE400934227D01432934227D01432934227D012
:100AF40002F56272934226D01432934225D0143206
:100B0400934224D01432934202D04FF4802203E063
:100B14004FF4804200E00422954B5A60C36A03B14B
:100B2400984738BD4022F7E74FF48062F4E74FF46A
:100B34008042F1E74FF48022EEE74FF48002EBE7C6
:100B44004FF08062E8E70422E6E74022E4E74FF44E
:100B54008062E1E7874A934224D01432934225D03D
:100B64001432934224D01432934224D01432934248
:100B740024D01432934224D01432934224D002F568
:100B84006272934223D01432934222D0143293429D
:100B940021D01432934202D04FF4802203E04FF468
:100BA400804200E00422744B5A60B7E74022FAE71F
:100BB4004FF48062F7E74FF48042F4E74FF4802269
:100BC400F1E74FF48002EEE74FF08062EBE7042296
:100BD400E9E74022E7E74FF48062E4E702238B4031
:100BE400134200F0A38015F0020F00F09F802368E9
:100BF40013F0200F06D1236823F00A032360012396
:100C040080F821300368594A93424BD9783A934289
:100C140024D0143293422DD0143293422CD0143267
:100C240093422CD0143293422CD0143293422CD0C1
:100C3400143293422CD002F5627293422BD01432B8
:100C440093422AD01432934229D01432934202D0D0
:100C54004FF4003203E04FF4005200E00222444B10
:100C64005A60002380F82030836A002B3FF459AF88
:100C7400984756E72022F2E74FF40072EFE74FF46B
:100C84000052ECE74FF40032E9E74FF40012E6E7D4
:100C94004FF00072E3E70222E1E72022DFE74FF49E
:100CA4000072DCE7334A934224D01432934225D0B5
:100CB4001432934224D01432934224D014329342F7
:100CC40024D01432934224D01432934224D002F517
:100CD4006272934223D01432934222D0143293424C
:100CE40021D01432934202D04FF4003203E04FF487
:100CF400005200E00222204B5A60B2E72022FAE7B9
:100D04004FF40072F7E74FF40052F4E74FF4003267
:100D1400F1E74FF40012EEE74FF00072EBE7022226
:100D2400E9E72022E7E74FF40072E4E7082303FA37
:100D340001F111423FF4F5AE15F0080F3FF4F1AEA6
:100D4400236823F00E032360026CC16B012303FAB2
:100D540002F24A60836380F82130002380F8203057
:100D6400036B002B3FF4DDAE9847DAE680000240C7
:100D7400000402400800024000000240F0B482B0C7
:100D840000263546ABE0002C63D0012C00D1CE68A0
:100D9400FF2B72D88446FF2B72D8AC00DCF80020FD
:100DA4000F27A74022EA070206FA04F42243CCF8EC
:100DB40000204A6812F0805F00F09080654A9469D0
:100DC40044F001049461926902F001020192019AD3
:100DD400AC08A71C604A52F827C005F0030297002C
:100DE4000F22BA402CEA020C5C4A90424ED002F523
:100DF4008062904200F08B8002F58062904200F0A5
:100E0400888002F58062904200F0858002F580625D
:100E1400904200F0828002F58062904234D0062233
:100E240035E04F4FBC4214D00BD94E4FBC4210D0CA
:100E340007F58037BC420CD0A7F58017BC42A7D178
:100E440007E0A7F58017BC4203D007F58037BC4202
:100E54009ED18C687CB1012C08D04261082697E7AA
:100E6400CE68083694E7CE680C3691E7026108260E
:100E74008EE700268CE704268AE700F1040C8AE753
:100E8400A5F10804A40089E7052200E00022BA4085
:100E940042EA0C020234304F47F824204A6812F424
:100EA400803F3CD0304C22681A4322604A6812F4D6
:100EB400003F3AD02C4C62681A4362604A6812F4CC
:100EC400801F38D0284CA2681A43A2604A6812F4E2
:100ED400001F36D0244CE2681343E36001350F2D24
:100EE40035D80122AA400B6813409A42F6D14C68C7
:100EF400122CB8D095D8022CB2D07FF644AF032C74
:100F0400B7D0112C7FF444AFCE68043640E70122F9
:100F1400BDE70222BBE70322B9E70422B7E7124C7C
:100F2400226822EA03022260C0E70F4C626822EAC8
:100F340003026260C2E70C4CA26822EA0302A260C8
:100F4400C4E7094CE26822EA0303E360C6E702B09F
:100F5400F0BC70470010024000000140000801404E
:100F640000002110000031100004014082B0084B41
:100F74001B68084AA2FB03235B0A00FB03F00190F1
:100F840000BF019B5A1E0192002BF9D102B0704799
:100F940008000020D34D621070B582B00446036887
:100FA40013F0010F2CD0AB4B5B6803F00C03042B44
:100FB4001DD0A84B5B6803F00C03082B12D06368A8
:100FC400B3F5803F41D0002B55D103F1804303F5A5
:100FD40004331A6822F480321A601A6822F48022D8
:100FE4001A6037E09B4B5B6813F4803FE7D0994B62
:100FF4001B6813F4003F03D06368002B00F0AE813C
:10100400236813F0020F76D0924B5B6813F00C0F39
:101014005FD0904B5B6803F00C03082B54D023691A
:10102400002B00F08A808C4B01221A60FFF70CFC25
:101034000546884B1B6813F0020F75D1FFF704FCBB
:10104400401B0228F5D903208BE1824A136843F43C
:1010540080331360636843B3FFF7F6FB05467D4BAB
:101064001B6813F4003FCBD1FFF7EEFB401B642851
:10107400F5D9032075E1B3F5A02F09D0754B1A6893
:1010840022F480321A601A6822F480221A60E1E79E
:1010940003F18043A3F53C331A6842F480221A60BA
:1010A4001A6842F480321A60D4E7FFF7CDFB054694
:1010B400684B1B6813F4003FA2D0FFF7C5FB401B2D
:1010C4006428F5D903204CE1624B5B6813F4803F3C
:1010D400A5D1604B1B6813F0020F04D02369012BC8
:1010E40001D001203DE15B4A136823F0F8036169F4
:1010F40043EAC1031360236813F0080F32D0A369D5
:10110400002B5BD0554B01221A60FFF79DFB05466F
:10111400504B5B6A13F0020F21D1FFF795FB401B84
:101124000228F5D903201CE14A4A136823F0F80386
:10113400616943EAC1031360DDE7474B00221A608B
:10114400FFF782FB0546434B1B6813F0020FD2D016
:10115400FFF77AFB401B0228F5D9032001E10120A7
:10116400FFF704FF236813F0040F00F09780394B56
:10117400DB6913F0805F33D1364BDA6942F0805279
:10118400DA61DB6903F080530193019B0125344B41
:101194001B6813F4807F25D0E368012B36D0002B25
:1011A4004CD103F1804303F504331A6A22F001029F
:1011B4001A621A6A22F004021A622CE0274B0022F7
:1011C4001A60FFF741FB0546224B5B6A13F0020FDE
:1011D400C8D0FFF739FB401B0228F5D90320C0E033
:1011E4000025D4E71E4A136843F480731360FFF7A5
:1011F4002BFB06461A4B1B6813F4807FCCD1FFF7F8
:1012040023FB801B6428F5D90320AAE0114A136A42
:1012140043F001031362E36873B3FFF715FB06465B
:101224000C4B1B6A13F0020F37D1FFF70DFB801B29
:1012340041F288339842F3D9032092E0052B11D070
:10124400044B1A6A22F001021A621A6A22F004029A
:101254001A62E0E700100240000042428004424269
:1012640000700040414B1A6A42F004021A621A6A82
:1012740042F001021A62CEE7FFF7E6FA06463B4B5C
:101284001B6A13F0020F08D0FFF7DEFA801B41F24D
:1012940088339842F3D9032063E0E5B9E369002B6E
:1012A4005ED0324A526802F00C02082A5BD0022B4C
:1012B40017D02F4B00221A60FFF7C6FA04462B4BB7
:1012C4001B6813F0007F47D0FFF7BEFA001B02280B
:1012D400F5D9032045E0254AD36923F08053D3612F
:1012E400DCE7234B00221A60FFF7AEFA05461F4BDA
:1012F4001B6813F0007F06D0FFF7A6FA401B0228F4
:10130400F5D903202DE0236AB3F5803F1AD017499D
:101314004B6823F47413226A606A024313434B60DC
:10132400134B01221A60FFF78FFA04460F4B1B6818
:1013340013F0007F0ED1FFF787FA001B0228F5D9BE
:1013440003200EE0094A536823F40033A1680B43D9
:101354005360DCE7002004E0002002E0012000E00C
:10136400002002B070BD0120FBE700BF0010024066
:101374006000424210B487B0164C94E80F000DF19F
:10138400180C0CE90F00238AADF80430124B5B688B
:1013940003F00C02082A1AD1C3F38342624412F800
:1013A400102C13F4803F05D10C4800FB02F007B069
:1013B40010BC7047084B5B68C3F34043634413F8A5
:1013C400143C074800FB02F0B0FBF3F0EFE70448DD
:1013D400EDE700BF7C2A00080010024000093D0030
:1013E40000127A00594B1B6803F007038B420CD29E
:1013F400564A136823F007030B431360136803F082
:1014040007038B4201D00120704770B5036813F0C5
:10141400020F06D04E4A536823F0F0038468234336
:1014240053600C460546036813F0010F52D043681D
:10143400012B23D0022B28D0454A126812F0020F48
:1014440000F0828042494A6822F0030213434B6051
:10145400FFF7FAF906466B68012B1DD0022B2AD040
:101464003B4B5B6813F00C0F34D0FFF7EDF9801B96
:1014740041F288339842F3D9032064E0344A126875
:1014840012F4003FDED101205DE0314A126812F00F
:10149400007FD7D1012056E02D4B5B6803F00C038D
:1014A400042B17D0FFF7D0F9801B41F28833984200
:1014B400F2D9032047E0264B5B6803F00C03082BAA
:1014C40008D0FFF7C1F9801B41F288339842F2D962
:1014D400032038E01D4B1B6803F00703A3420CD91B
:1014E4001A4A136823F0070323431360136803F0B5
:1014F4000703A34201D0012025E02B6813F0040F59
:1015040006D0134A536823F4E063E9680B4353603D
:101514002B6813F0080F07D00D4A536823F4605367
:10152400296943EAC1035360FFF724FF084B5B6852
:10153400C3F30313074AD35CD840074B1860002059
:10154400FFF740F9002070BD0120FCE700200240B5
:1015540000100240902A000808000020014B18687F
:10156400704700BF0800002030B4036A23F0010371
:101574000362056A4268846924F073040B681C439F
:1015840025F002058B682B43104DA84203D005F5C6
:101594000065A84205D123F00803CD682B4323F04E
:1015A40004030A4DA84203D005F50065A84205D1FD
:1015B40022F440724D6915438A692A43426084616A
:1015C4004A684263036230BC704700BF002C01408C
:1015D40030B4036A23F480730362036A4268C46903
:1015E40024F073040D682C4323F400738D6843EADC
:1015F4000523124DA84203D005F50065A84206D183
:1016040023F40063CD6843EA052323F480630B4D80
:10161400A84203D005F50065A84207D122F4405240
:101624004D6942EA05128D6942EA05124260C461BD
:101634004A68C263036230BC704700BF002C01409B
:1016440030B4036A23F480530362036A4468C269B2
:1016540022F4E6420D6842EA052223F400538D6821
:1016640043EA0533094DA84203D005F50065A842B5
:1016740004D124F480444D6944EA85144460C26171
:101684004A680264036230BC704700BF002C01400A
:1016940010B4036A046A24F001040462846924F027
:1016A400F00444EA021223F00A030B43826103624A
:1016B40010BC704710B4036A23F0100303628469FA
:1016C400036A24F4704444EA023223F0A00343EA98
:1016D40001138261036210BC7047836823F07003B6
:1016E40041F0070119438160704710B4846824F401
:1016F4007F4442EA03230B432343836010BC7047B7
:10170400704790F83C30012B7DD010B5044601237E
:1017140080F83C30022380F83D300268936823F45B
:101724007F4323F0770393600B68402B57D010D985
:10173400702B3ED01FD8502B47D0602B32D1CA68B3
:1017440049680068FFF7B6FF60212068FFF7C5FF0E
:1017540028E0102B4DD008D9202B4FD0302B21D18D
:1017640030210068FFF7B9FF1CE0DBB900210068F5
:10177400FFF7B3FF16E0B3F5805F0ED0B3F5005F5B
:1017840010D1CB684A6889680068FFF7AEFF226809
:10179400936843F48043936004E00268936823F001
:1017A40007039360012384F83D30002084F83C0053
:1017B40010BDCB684A6889680068FFF796FF226805
:1017C400936843F077039360ECE7CA68496800685C
:1017D400FFF75EFF50212068FFF77FFFE2E7CA684A
:1017E40049680068FFF754FF40212068FFF775FF40
:1017F400D8E710210068FFF770FFD3E720210068C5
:10180400FFF76BFFCEE702207047704710B5446ABC
:10181400012384F83D30636A83420BD0A36A834278
:1018240010D0E36A834210D0236B834204D108238F
:10183400237701E0012323772046FFF7E6FF002307
:10184400237710BD02232377F6E704232377F3E7F6
:10185400704708B5406A012380F83D30FFF7F8FF70
:1018640008BD00000368244A904212D002F50062C9
:1018740090420ED0B0F1804F0BD0A2F59832904236
:1018840007D002F58062904203D002F58062904254
:1018940003D123F070034A681343174A904212D0CD
:1018A40002F5006290420ED0B0F1804F0BD0A2F549
:1018B4009832904207D002F58062904203D002F53C
:1018C4008062904203D123F44073CA68134323F027
:1018D40080034A69134303608B68C3620B688362A5
:1018E400054B984203D003F50063984201D10B697C
:1018F4000363012343617047002C0140A8B110B574
:10190400044690F83D305BB1022384F83D30211D3C
:101914002068FFF7A7FF012384F83D30002010BDA5
:1019240080F83C3000F0B6FAEEE701207047A8B129
:1019340010B5044690F83D305BB1022384F83D3085
:10194400211D2068FFF78EFF012384F83D3000201D
:1019540010BD80F83C30FFF7D3FEEEE7012070475E
:1019640030B4036A23F010030362036A4468826993
:1019740022F4E6420D6842EA052223F020038D6832
:1019840043EA0513114DA84203D005F50065A842AA
:1019940006D123F08003CD6843EA051323F0400306
:1019A4000A4DA84203D005F50065A84207D124F4E6
:1019B40040644D6944EA85048D6944EA85044460C1
:1019C40082614A688263036230BC7047002C014024
:1019D40038B590F83C30012B66D00D4604460123FF
:1019E40080F83C30022380F83D300C2A1AD8DFE816
:1019F40002F007191919201919193419191947006E
:101A04000068FFF7B1FD2268936943F0080393610E
:101A14002268936923F00403936122689369296916
:101A24000B439361012384F83D30002084F83C008B
:101A340038BD0068FFF794FF2268936943F400639C
:101A440093612268936923F48063936122689369A4
:101A5400296943EA01239361E4E70068FFF7B8FDCD
:101A64002268D36943F00803D3612268D36923F061
:101A74000403D3612268D36929690B43D361D1E795
:101A84000068FFF7DDFD2268D36943F40063D36186
:101A94002268D36923F48063D3612268D3692969F6
:101AA40043EA0123D361BDE70220C1E710B4012357
:101AB40003FA01F4036A23EA04030362036A8A4013
:101AC4001343036210BC704770B590F83D60F6B2E2
:101AD400022E7AD090F83D40E4B2012C0DD0164687
:101AE4000D4604460C2922D8DFE801F010212121FB
:101AF400392121214B2121215D001AB1022480F8D2
:101B04003D40ECE7002BF9D0012027E0426A304940
:101B14009162426A2F491163026834323146406A45
:101B2400FEF77CFF2268D36843F40073D36001227C
:101B340029462068FFF7BAFF2368274A934203D057
:101B440002F50062934203D15A6C42F400425A6493
:101B54002268136843F001031360002070BD826A99
:101B64001B499162826A1B4911630268383231460B
:101B7400806AFEF753FF2268D36843F48063D3601E
:101B8400D5E7C26A12499162C26A124911630268B6
:101B94003C323146C06AFEF741FF2268D36843F401
:101BA4000063D360C3E7026B09499162026B094980
:101BB4001163026840323146006BFEF72FFF226842
:101BC400D36843F48053D360B1E70220C6E700BF73
:101BD4001118000857180008002C014090F83C30F8
:101BE400012B22D030B4012280F83C20022380F85B
:101BF4003D300468636823F07003636004686368BD
:101C04000D682B4363600468A36823F08003A3601A
:101C14000468A36849680B43A36080F83D2000234F
:101C240080F83C30184630BC7047022070470000F2
:101C340082B00A4B9A6942F020029A619A6902F0D2
:101C440020020092009A9A6942F004029A619B6908
:101C540003F004030193019B02B07047001002409B
:101C640000B583B00A4B5A6942F001025A615B69BC
:101C740003F001030193019B002211461120FEF79A
:101C8400FBFD1120FEF72CFE03B05DF804FB00BF42
:101C940000100240FEE7000000B58FB025484FF069
:101CA4008043036001234360002383602C22C260CD
:101CB40003618361FFF722FE38BB0EA94FF4805302
:101CC40041F8103D1B48FFF71CFD10BB1948FFF7F6
:101CD4002EFE10BB00230893099308A91548FFF7AB
:101CE4007DFFF0B9602301930023029303930593CE
:101CF40004220DEB02010F48FFF76AFEA8B90D4854
:101D040000F002F90FB05DF804FBCC210A48FFF79C
:101D1400C1FFD2210848FFF7BDFFD7210648FFF7CE
:101D2400B9FFDE210448FFF7B5FFE7210248FFF7BA
:101D3400B1FF00BF98000020C42A000800B591B08C
:101D4400012206924FF480330793002108910A92EE
:101D540002220D920E934FF4E0130F9306A8FFF79F
:101D64001BF908BB0F230193022102910023039363
:101D74004FF480620492059301A8FFF733FBB8B9CE
:101D8400FFF7ECFB0C4BA3FB00308009FEF7B4FD1E
:101D94000420FEF7C7FD002211464FF0FF30FEF786
:101DA4006BFD11B05DF804FB9F210448FFF772FF3F
:101DB400AD210248FFF76EFFD34D6210C42A00081C
:101DC40008B5FEF723FDFFF7B9FFFFF731FFFFF773
:101DD40047FFFFF761FFFEF77BFC00F07DF9044845
:101DE40000F058FB0022FF21104600F043F9F9E708
:101DF400D42A000800B583B0244B9A6942F001024A
:101E04009A619A6902F001020092009ADA6942F03A
:101E14008052DA61DB6903F080530193019B032054
:101E2400FEF718FD002211466FF00B00FEF724FDAB
:101E3400002211466FF00A00FEF71EFD0022114633
:101E44006FF00900FEF718FD002211466FF0040040
:101E5400FEF712FD002211466FF00300FEF70CFDA1
:101E6400002211466FF00100FEF706FD0022114624
:101E74004FF0FF30FEF700FD054A536823F0E0639E
:101E840043F00073536003B05DF804FB001002409C
:101E9400000001400368B3F1804F00D0704710B5D3
:101EA40082B0044603F50433DA6942F00102DA61D0
:101EB400DB6903F001030193019B1048104B03609D
:101EC40010234360002383608022C2604FF40072B9
:101ED40002614361202383614FF40053C361FEF721
:101EE4004DFD28B9054BA3625C62236302B010BDAB
:101EF4006F210448FFF7CEFEF4E700BFD8000020AE
:101F040080000240DC2A00080368B3F1804F00D04F
:101F1400704700B585B00223009301930323039314
:101F240069460348FEF72AFF05B05DF804FB00BFCD
:101F3400000801407047FEE7FEE7FEE7FEE7704752
:101F44007047704708B5FEF773FCFEF7FCFC08BD4C
:101F540008B50248FEF79CFD08BD00BFD80000206C
:101F64000F4B1A6842F001021A6059680D4A0A4080
:101F74005A601A6822F0847222F480321A601A6855
:101F840022F480221A605A6822F4FE025A604FF446
:101F94001F029A60044B4FF000629A60704700BFC2
:101FA400001002400000FFF800ED00E008B5DC235B
:101FB400024A04210248FFF787FD08BD1C010020E6
:101FC4009800002070B487B0284CA4FB0054A408E7
:101FD40004EB8404041B002005E00F2606AD054431
:101FE40005F8186C0130072806D802FA00F515F038
:101FF400800FF2D01E26F1E7002207E00F2502F140
:10200400080006AE304400F8185C0132072A06D8EE
:1020140001FA02F010F0800FF0D01E25EFE7002245
:1020240007E00F2002F1100106AD294401F8180C55
:102034000132072A06D803FA02F111F0800FF0D01A
:102044001E20EFE70022172A0CD804EB4401CB0032
:102054001344323306A9114411F8180C0449C85426
:102064000132F0E707B070BC704700BFCDCCCCCCD8
:102074001C010020F8B507460E4615460024042C22
:1020840007D82B46324639462046FFF79BFF0134DA
:10209400F5E7F8BD0023312B04D80E4A0021D154B2
:1020A4000133F8E70022772A05D80A490F20C854DB
:1020B40001330132F7E7074A0F21D15401330022DB
:1020C400312A05D803490020C85401330132F7E707
:1020D400704700BF1C01002008B5FFF7DBFFFFF7C6
:1020E40065FF08BD002103E00B4B5B5843500431EE
:1020F4000A480B4B42189A42F6D30A4A02E00023DC
:1021040042F8043B084B9A42F9D3FFF729FF00F049
:10211400DFF8FFF755FE7047682B00080000002029
:102124007C0000207C000020B8020020FEE70000B4
:10213400014B1868704700BF18000020002310B539
:102144000446C0E90033836081814366C281C0E9EB
:1021540004338361194608225C3000F0DDF8054B36
:1021640024626362044BA362044BE362044B236363
:1021740010BD00BFC9240008EB2400082325000873
:1021840047250008014900F085B800BF2128000850
:1021940070B568254A1E55430E4605F1740100F0DA
:1021A400C3F8044640B10021C0E900160C30A06019
:1021B40005F1680200F0B0F8204670BD836910B5DF
:1021C400044633BBC0E912330365124B124A1B6841
:1021D4008262984204BF0123836100F01FF86060AB
:1021E400204600F01BF8A060204600F017F80022FB
:1021F400E06004216068FFF7A1FF01220921A068C3
:10220400FFF79CFF02221221E068FFF797FF0123EA
:10221400A36110BD5C2B000889210008F8B51B4B95
:1022240007461E68B36913B93046FFF7C7FF48363F
:10223400D6E90134013B03D5336833B13668F7E797
:10224400B4F90C506DB16834F4E704213846FFF753
:102254009FFF30600028F1D10C2304463B602046E8
:10226400F8BD0B4B6566C4E90055A560C4E90335A8
:10227400C4E905550822294604F15C0000F04CF835
:10228400C4E90D55C4E91255E9E700BF5C2B000809
:102294000100FFFF2DE9F84380468946002600F13E
:1022A400480414B93046BDE8F883D4E90175013F08
:1022B40001D52468F5E7AB89012B07D9B5F90E30B0
:1022C400013303D029464046C84706436835EEE744
:1022D40070B500250C4E0D4CA41BA410A54209D1C9
:1022E40000F0BEFB00250A4E0A4CA41BA410A54214
:1022F40005D170BD56F8253098470135EEE756F8FC
:10230400253098470135F2E7602B0008602B000860
:10231400602B0008642B000803460244934200D15A
:10232400704703F8011BF9E770B5CD1C25F00305D0
:1023340008350C2D38BF0C25002D064601DBA942BB
:1023440003D90C233360002070BD00F007FB214A41
:102354001468214691B9204C23681BB9304600F01B
:10236400A1F820602946304600F09CF8431C24D193
:102374000C233046336000F0F2FAE4E70B685B1B91
:1023840018D40B2B0FD90B60CC18CD50304600F06D
:10239400E6FA04F10B00231D20F00700C31AD3D082
:1023A4005A42E250D0E74B688C4216BF6360136018
:1023B4000C46EBE70C464968CCE7C41C24F0030444
:1023C400A04205D0211A304600F06CF80130CFD07D
:1023D4002560DBE7A8020020AC02002070B50E46A1
:1023E400054618B183690BB9FFF7E8FEAB69AC6821
:1023F40013B92846FFF7E2FE234B9C4217D16C68C1
:10240400A3891B071DD52369DBB1013EA36816F818
:10241400011F013BA360E9B9002B2EDA22460A21F1
:10242400284600F093F8013011D00A2011E0174B30
:102434009C4201D1AC68E3E7154B9C4208BFEC68B1
:10244400DEE72146284600F0E5F80028DDD04FF00D
:10245400FF3070BD002B04DAA2699A4206DC0A2917
:1024640004D023685A1C22601970CFE722462846FC
:1024740000F06CF80130C9D1E9E70A2023685A1C3E
:1024840022601870E5E700BF1C2B00083C2B0008F5
:10249400FC2A0008024B01461868FFF79FBF00BFE3
:1024A4001800002038B50023054C05460846236073
:1024B400FDF7C4FF431C02D1236803B12B6038BD70
:1024C400B402002010B50C46B1F90E1000F094FAD5
:1024D4000028ABBF636DA3891B1823F48053ACBFE2
:1024E4006365A38110BD2DE9F0411F468B89054624
:1024F400DB050C46164605D502230022B1F90E1061
:1025040000F0B6F9A389324623F48053A381B4F9C9
:102514000E103B462846BDE8F04100F069B810B5FE
:102524000C46B1F90E1000F0A3F9431CA38915BFA2
:10253400606523F4805343F48053A38118BFA381BF
:1025440010BDB1F90E1000F0D3B80000F8B50E4676
:102554001446054618B183690BB9FFF72FFE214BCA
:102564009C422AD16C68A369A360A3891A072ED55B
:10257400236963B323692068F6B2C01A63693746D6
:10258400834204DC2146284600F048F928BBA368AE
:102594000130013BA36023685A1C22601E706369EA
:1025A400834204D0A389DB0719D50A2E17D121460B
:1025B400284600F033F990B10FE00B4B9C4201D157
:1025C400AC68D0E7094B9C4208BFEC68CBE72146D6
:1025D400284600F01FF80028CCD04FF0FF373846CB
:1025E400F8BD00BF1C2B00083C2B0008FC2A000887
:1025F40038B50546084611460022054C22601A46A5
:10260400FDF7C7FE431C02D1236803B12B6038BD1C
:10261400B4020020324B70B51D6806460C4625B145
:10262400AB6913B92846FFF7C9FD2E4B9C420FD165
:102634006C68B4F90C309AB215072CD4D00611D4B6
:102644000922326043F04003A3814FF0FF303EE0A3
:10265400254B9C4201D1AC68EBE7244B9C4208BF5C
:10266400EC68E6E7510712D5616B41B104F144030C
:10267400994202D0304600F073F900236363A389C2
:1026840023F02403A3810023636023692360A389C7
:1026940043F00803A38123694BB9A38903F420738E
:1026A400B3F5007F03D02146304600F017F9A28924
:1026B40012F001030CD00023A36063695B42A361A1
:1026C400236953B9B4F90C3013F08000BAD170BD4A
:1026D400920758BF6369A360F2E70020F7E700BFE1
:1026E400180000201C2B00083C2B0008FC2A0008C2
:1026F40038B50023054C054608462360FDF778FEEF
:10270400431C02D1236803B12B6038BDB4020020FE
:102714008A892DE9F041054610070C4658D44B68C8
:10272400002B05DC0B6C002B02DC0020BDE8F081E3
:10273400E66A002EF9D0002312F480522F68216A31
:102744002B6032D0606DA3895A0705D56368C01A1F
:10275400636B0BB1236CC01A00230246E66A216A3C
:102764002846B047431CA38906D129681D2948D8A7
:10277400294ACA40D60744D5002262602269D90496
:10278400226004D5421C01D12B6803B96065616BDA
:102794002F600029C9D004F14403994202D028468D
:1027A40000F0DEF800206063C0E701232846B0474C
:1027B400411CC8D12B68002BC5D01D2B01D0162B72
:1027C40001D12F60B1E7A38943F04003A381ADE7B2
:1027D4000F69002FA9D0930718BF00230E6808BF04
:1027E4004B69A6EB07080F608B60B8F1000F9CDD06
:1027F40043463A46216A2846A66AB047002806DCC2
:10280400A38943F04003A3814FF0FF308EE70744D0
:10281400A8EB0008E9E700BF0100402038B50B69C8
:1028240005460C46DBB118B183690BB9FFF7C6FC4A
:102834000C4B9C4209D16C68B4F90C307BB1214635
:102844002846BDE83840FFF763BF074B9C4201D1DF
:10285400AC68F1E7054B9C4208BFEC68ECE700204C
:1028640038BD00BF1C2B00083C2B0008FC2A0008C4
:1028740038B50546084611460022054C22601A4622
:10288400FDF775FD431C02D1236803B12B6038BDED
:10289400B402002070B50E46B1F90E1096B00029AE
:1028A40014461D4607DA00232B60B3891A0610D498
:1028B4004FF480630EE06A4600F0B0F80028F2DBC3
:1028C400019A02F47042A2F500535A425A412A6016
:1028D400EEE740230020236016B070BD8B8973B5EA
:1028E4009D0706460C4607D504F147032360236180
:1028F4000123636102B070BD01AB6A46FFF7CAFFF2
:10290400009905463046FFF70FFD48B9B4F90C307D
:102914009A05EFD423F0030343F00203A381E3E712
:102924000D4BB362A389206043F08003A381009B15
:1029340020616361019B5BB1B4F90E10304600F075
:102944007FF828B1A38923F0030343F00103A38193
:10295400A3891D43A581CDE78921000870477047ED
:1029640038B50546002943D051F8043C0C1F002B10
:10297400B8BFE418FFF7F2FF1E4A1368104633B9D4
:10298400636014602846BDE83840FFF7E8BFA342FF
:102994000BD921686218934201BF1A685B68521808
:1029A400226063600460EDE713465A680AB1A242EC
:1029B400FAD919685818A0420BD120680144581854
:1029C40082421960DED110685268014419605A606D
:1029D400D8E702D90C232B60D4E7206821188A4257
:1029E40001BF116852680918216062605C60C9E720
:1029F40038BD00BFA802002038B505460846114678
:102A04000022054C22601A46FDF75AFC431C02D1F1
:102A1400236803B12B6038BDB402002038B500230D
:102A2400064C0546084611462360FDF74CFD431C41
:102A340002D1236803B12B6038BD00BFB40200206B
:102A440038B50023054C054608462360FDF79EFE75
:102A5400431C02D1236803B12B6038BDB4020020AB
:102A6400F8B500BFF8BC08BC9E467047F8B500BF77
:082A7400F8BC08BC9E46704747
:102A7C0002030405060708090A0B0C0D0E0F1010B3
:102A8C00010200000000000000000000010203042D
:102A9C000607080900000000010203043A73656D83
:102AAC0069686F7374696E672D666561747572659C
:102ABC0073003A74740000002E2E2F5372632F6D26
:102ACC0061696E2E6370700044504F4E4573000068
:102ADC002E2E2F5372632F73746D333266317878C8
:102AEC005F68616C5F6D73702E6370700000000026
:102AFC0000000000000000000000000000000000CA
:102B0C0000000000000000000000000000000000B9
:102B1C0000000000000000000000000000000000A9
:102B2C000000000000000000000000000000000099
:102B3C000000000000000000000000000000000089
:102B4C000000000000000000000000000000000079
:042B5C001C00002039
:042B6000090200085E
:042B6400E50100087F
:102B6800010000001000000000A24A04ADDEFECA09
:102B7800FFFFFFFFFFFFFFFF1C0000200000000019
:102B88001C2B00083C2B0008FC2A00080000000051
:102B9800000000000000000000000000000000002D
:102BA800000000000000000000000000000000001D
:102BB800000000000000000000000000000000000D
:102BC80000000000000000000000000000000000FD
:0C2BD800000000000000000000000000F1
:04000005080020E9E6
:00000001FF
