:020000040800F2
:1000000000000120311D0008911B0008931B00080F
:10001000951B0008971B0008991B000800000000B2
:100020000000000000000000000000009B1B000812
:100030009D1B0008000000009F1B0008A11B00087A
:10004000791D0008791D0008791D0008791D000838
:10005000791D0008791D0008791D0008791D000828
:10006000791D0008791D0008791D0008791D000818
:10007000791D0008791D0008791D0008791D000808
:10008000791D0008AD1B0008791D0008791D0008C6
:10009000791D0008791D0008791D0008791D0008E8
:1000A000791D0008791D0008791D0008791D0008D8
:1000B000BD1B0008791D0008791D0008791D000886
:1000C000791D0008791D0008791D0008791D0008B8
:1000D000791D0008791D0008791D0008791D0008A8
:1000E000791D0008791D0008791D0008791D000898
:1000F000791D0008791D0008791D0008791D000888
:10010000791D0008791D0008791D0008791D000877
:10011000791D0008791D0008791D0008791D000867
:10012000791D0008791D0008791D0008791D000857
:1001300000000000000000000000000000000000BF
:1001400000000000000000000000000000000000AF
:10015000000000000000000000000000000000009F
:10016000000000000000000000000000000000008F
:10017000000000000000000000000000000000007F
:10018000000000000000000000000000000000006F
:10019000000000000000000000000000000000005F
:1001A000000000000000000000000000000000004F
:1001B000000000000000000000000000000000003F
:1001C000000000000000000000000000000000002F
:1001D000000000000000000000000000000000001F
:0401E0005FF8E0F1F3
:1001E40010B5054C237833B9044B13B10448AFF36D
:1001F40000800123237010BD0809002000000000C6
:10020400C41D000808B5034B1BB103490348AFF3F1
:10021400008008BD000000000C090020C41D000877
:1002240010B504460E4B18784FF47A73B3FBF0F311
:100234000C4A1068B0FBF3F000F0A0F868B90F2C7A
:1002440001D901200AE0002221464FF0FF3000F0DE
:1002540055F8034B5C60002000E0012010BD00BF96
:10026400000000200409002008B5074A136843F081
:1002740010031360032000F02FF80020FFF7D0FFD5
:1002840001F0DCFB002008BD00200240034A116895
:10029400034B1B780B441360704700BF28090020F0
:1002A40000000020014B1868704700BF2809002097
:1002B40038B50446FFF7F6FF0546B4F1FF3F02D018
:1002C400044B1B781C44FFF7EDFF401BA042FAD3FC
:1002D40038BD00BF00000020074AD36823F4E06360
:1002E4001B041B0C000200F4E060184340F0BF60E4
:1002F40040F40030D060704700ED00E030B4174B9C
:10030400DB68C3F30223C3F10704042C28BF0424CD
:100314001D1D062D18D9033B4FF0FF3505FA04F4D3
:1003240021EA0401994005FA03F322EA030319437D
:1003340000280BDB0901C9B200F1604000F56140FF
:1003440080F8001330BC70470023E5E700F00F008D
:100354000901C9B2024B1954F4E700BF00ED00E0F3
:1003640014ED00E000F01F02400901239340024A0B
:1003740042F82030704700BF00E100E00138B0F1DE
:10038400807F0AD2064B5860064AF02182F8231077
:100394000020986007221A6070470120704700BF50
:1003A40010E000E000ED00E0042805D0054A1368E1
:1003B40023F0040313607047024A136843F00403F4
:1003C4001360704710E000E0704708B5FFF7FCFFCA
:1003D40008BD70B4066CC56B0124B4406C6004683D
:1003E40063604368102B05D0036899600368DA6082
:1003F40070BC704703689A600368D960F8E700002E
:1004040000283FD010B4034601681F4A91422ED8F9
:100414001E4A0A441E49A1FB0212120992000264F8
:100424001C4AC263022283F821201868016821F45F
:100434007F5121F030015A689C682243DC682243D2
:100444001C6922435C6922439C692243DC69224380
:100454000A43026000209862D86218635863986364
:10046400012283F8212083F8200010BC70470A4A37
:100474000A440749A1FB0212120992000264074AC6
:10048400C263CFE70120704707040240F8FFFDBFB5
:10049400CDCCCCCC00000240F8FBFDBF00040240F0
:1004A40038B590F82040012C32D0012480F8204047
:1004B40090F82140012C04D0002380F82030022041
:1004C40038BD0446022084F821000020A06325687A
:1004D400286820F0010028602046FFF77AFFE36ACD
:1004E4005BB12268136843F00E031360226813683B
:1004F40043F0010313600020E2E72268136823F04D
:10050400040313602268136843F00A031360EDE7E1
:100514000220D5E738B5C36B1A6804682568016CF6
:1005240004238B40134200F09B8015F0040F00F06D
:100534009780236813F0200F03D1236823F004036A
:1005440023600368AA4A934246D9783A934224D056
:100554001432934228D01432934227D01432934257
:1005640027D01432934227D01432934227D0143226
:10057400934227D002F56272934226D014329342FA
:1005840025D01432934224D01432934202D04FF433
:10059400802203E04FF4804200E00422954B5A602D
:1005A400C36A03B1984738BD4022F7E74FF480622D
:1005B400F4E74FF48042F1E74FF48022EEE74FF482
:1005C4008002EBE74FF08062E8E70422E6E740228E
:1005D400E4E74FF48062E1E7874A934224D014327F
:1005E400934225D01432934224D01432934224D01F
:1005F4001432934224D01432934224D014329342BE
:1006040024D002F56272934223D01432934222D052
:100614001432934221D01432934202D04FF48022F8
:1006240003E04FF4804200E00422744B5A60B7E7C1
:100634004022FAE74FF48062F7E74FF48042F4E790
:100644004FF48022F1E74FF48002EEE74FF080622E
:10065400EBE70422E9E74022E7E74FF48062E4E7AE
:1006640002238B40134200F0A38015F0020F00F028
:100674009F80236813F0200F06D1236823F00A0318
:100684002360012380F821300368594A93424BD9EF
:10069400783A934224D0143293422DD014329342A8
:1006A4002CD0143293422CD0143293422CD01432D6
:1006B40093422CD0143293422CD002F562729342AE
:1006C4002BD0143293422AD01432934229D01432BC
:1006D400934202D04FF4003203E04FF4005200E0A2
:1006E4000222444B5A60002380F82030836A002B96
:1006F4003FF459AF984756E72022F2E74FF40072CF
:10070400EFE74FF40052ECE74FF40032E9E74FF41F
:100714000012E6E74FF00072E3E70222E1E720224D
:10072400DFE74FF40072DCE7334A934224D01432FB
:10073400934225D01432934224D01432934224D0CD
:100744001432934224D01432934224D0143293426C
:1007540024D002F56272934223D01432934222D001
:100764001432934221D01432934202D04FF4003217
:1007740003E04FF4005200E00222204B5A60B2E73B
:100784002022FAE74FF40072F7E74FF40052F4E73F
:100794004FF40032F1E74FF40012EEE74FF000722D
:1007A400EBE70222E9E72022E7E74FF40072E4E7EF
:1007B400082303FA01F111423FF4F5AE15F0080FD6
:1007C4003FF4F1AE236823F00E032360026CC16B87
:1007D400012303FA02F24A60836380F82130002384
:1007E40080F82030036B002B3FF4DDAE9847DAE647
:1007F4008000024000040240080002400000024061
:10080400F0B482B000263546ABE0002C63D0012C56
:1008140000D1CE68FF2B72D88446FF2B72D8AC006F
:10082400DCF800200F27A74022EA070206FA04F4A6
:100834002243CCF800204A6812F0805F00F09080D8
:10084400654A946944F001049461926902F00102DA
:100854000192019AAC08A71C604A52F827C005F01F
:10086400030297000F22BA402CEA020C5C4A904221
:100874004ED002F58062904200F08B8002F58062D7
:10088400904200F0888002F58062904200F08580FA
:1008940002F58062904200F0828002F5806290420C
:1008A40034D0062235E04F4FBC4214D00BD94E4F02
:1008B400BC4210D007F58037BC420CD0A7F5801796
:1008C400BC42A7D107E0A7F58017BC4203D007F5C7
:1008D4008037BC429ED18C687CB1012C08D0426127
:1008E400082697E7CE68083694E7CE680C3691E779
:1008F400026108268EE700268CE704268AE700F1C9
:10090400040C8AE7A5F10804A40089E7052200E0A5
:100914000022BA4042EA0C020234304F47F8242045
:100924004A6812F4803F3CD0304C22681A4322605B
:100934004A6812F4003F3AD02C4C62681A43626051
:100944004A6812F4801F38D0284CA2681A43A26067
:100954004A6812F4001F36D0244CE2681343E36063
:1009640001350F2D35D80122AA400B6813409A4255
:10097400F6D14C68122CB8D095D8022CB2D07FF6A0
:1009840044AF032CB7D0112C7FF444AFCE680436A7
:1009940040E70122BDE70222BBE70322B9E70422B4
:1009A400B7E7124C226822EA03022260C0E70F4C28
:1009B400626822EA03026260C2E70C4CA26822EA7F
:1009C4000302A260C4E7094CE26822EA0303E3607D
:1009D400C6E702B0F0BC70470010024000000140BE
:1009E4000008014000002110000031100004014003
:1009F40082B0084B1B68084AA2FB03235B0A00FB76
:100A040003F0019000BF019B5A1E0192002BF9D103
:100A140002B0704704090020D34D621070B582B053
:100A24000446036813F0010F2CD0AB4B5B6803F052
:100A34000C03042B1DD0A84B5B6803F00C03082B9C
:100A440012D06368B3F5803F41D0002B55D103F138
:100A5400804303F504331A6822F480321A601A685A
:100A640022F480221A6037E09B4B5B6813F4803FCA
:100A7400E7D0994B1B6813F4003F03D06368002B45
:100A840000F0AE81236813F0020F76D0924B5B68BE
:100A940013F00C0F5FD0904B5B6803F00C03082B32
:100AA40054D02369002B00F08A808C4B01221A60F9
:100AB400FFF7F8FB0546884B1B6813F0020F75D14E
:100AC400FFF7F0FB401B0228F5D903208BE1824A93
:100AD400136843F480331360636843B3FFF7E2FBA6
:100AE40005467D4B1B6813F4003FCBD1FFF7DAFBBF
:100AF400401B6428F5D9032075E1B3F5A02F09D074
:100B0400754B1A6822F480321A601A6822F4802223
:100B14001A60E1E703F18043A3F53C331A6842F419
:100B240080221A601A6842F480321A60D4E7FFF710
:100B3400B9FB0546684B1B6813F4003FA2D0FFF7CE
:100B4400B1FB401B6428F5D903204CE1624B5B6880
:100B540013F4803FA5D1604B1B6813F0020F04D03F
:100B64002369012B01D001203DE15B4A136823F086
:100B7400F803616943EAC1031360236813F0080FA3
:100B840032D0A369002B5BD0554B01221A60FFF7CA
:100B940089FB0546504B5B6A13F0020F21D1FFF726
:100BA40081FB401B0228F5D903201CE14A4A136843
:100BB40023F0F803616943EAC1031360DDE7474B9F
:100BC40000221A60FFF76EFB0546434B1B6813F0C7
:100BD400020FD2D0FFF766FB401B0228F5D9032091
:100BE40001E10120FFF704FF236813F0040F00F074
:100BF4009780394BDB6913F0805F33D1364BDA6968
:100C040042F08052DA61DB6903F080530193019B67
:100C14000125344B1B6813F4807F25D0E368012B36
:100C240036D0002B4CD103F1804303F504331A6A08
:100C340022F001021A621A6A22F004021A622CE0FB
:100C4400274B00221A60FFF72DFB0546224B5B6AF7
:100C540013F0020FC8D0FFF725FB401B0228F5D97B
:100C64000320C0E00025D4E71E4A136843F48073D0
:100C74001360FFF717FB06461A4B1B6813F4807FBB
:100C8400CCD1FFF70FFB801B6428F5D90320AAE021
:100C9400114A136A43F001031362E36873B3FFF765
:100CA40001FB06460C4B1B6A13F0020F37D1FFF70A
:100CB400F9FA801B41F288339842F3D9032092E079
:100CC400052B11D0044B1A6A22F001021A621A6A27
:100CD40022F004021A62E0E70010024000004242DF
:100CE4008004424200700040414B1A6A42F0040200
:100CF4001A621A6A42F001021A62CEE7FFF7D2FAC8
:100D040006463B4B1B6A13F0020F08D0FFF7CAFAE2
:100D1400801B41F288339842F3D9032063E0E5B99C
:100D2400E369002B5ED0324A526802F00C02082AB2
:100D34005BD0022B17D02F4B00221A60FFF7B2FAB8
:100D440004462B4B1B6813F0007F47D0FFF7AAFA29
:100D5400001B0228F5D9032045E0254AD36923F076
:100D64008053D361DCE7234B00221A60FFF79AFA21
:100D740005461F4B1B6813F0007F06D0FFF792FA5D
:100D8400401B0228F5D903202DE0236AB3F5803FE8
:100D94001AD017494B6823F47413226A606A024319
:100DA40013434B60134B01221A60FFF77BFA04468E
:100DB4000F4B1B6813F0007F0ED1FFF773FA001B73
:100DC4000228F5D903200EE0094A536823F40033BE
:100DD400A1680B435360DCE7002004E0002002E03C
:100DE400012000E0002002B070BD0120FBE700BF3D
:100DF400001002406000424210B487B0164C94E8E0
:100E04000F000DF1180C0CE90F00238AADF8043023
:100E1400124B5B6803F00C02082A1AD1C3F3834215
:100E2400624412F8102C13F4803F05D10C4800FBE7
:100E340002F007B010BC7047084B5B68C3F3404333
:100E4400634413F8143C074800FB02F0B0FBF3F0D2
:100E5400EFE70448EDE700BFDC1D00080010024086
:100E640000093D0000127A00594B1B6803F0070388
:100E74008B420CD2564A136823F007030B431360CA
:100E8400136803F007038B4201D00120704770B54B
:100E9400036813F0020F06D04E4A536823F0F003A0
:100EA4008468234353600C460546036813F0010F1E
:100EB40052D04368012B23D0022B28D0454A126814
:100EC40012F0020F00F0828042494A6822F00302C5
:100ED40013434B60FFF7E6F906466B68012B1DD000
:100EE400022B2AD03B4B5B6813F00C0F34D0FFF776
:100EF400D9F9801B41F288339842F3D9032064E086
:100F0400344A126812F4003FDED101205DE0314A18
:100F1400126812F0007FD7D1012056E02D4B5B6898
:100F240003F00C03042B17D0FFF7BCF9801B41F22C
:100F340088339842F2D9032047E0264B5B6803F0DC
:100F44000C03082B08D0FFF7ADF9801B41F288335E
:100F54009842F2D9032038E01D4B1B6803F00703C5
:100F6400A3420CD91A4A136823F0070323431360DE
:100F7400136803F00703A34201D0012025E02B6886
:100F840013F0040F06D0134A536823F4E063E968AE
:100F94000B4353602B6813F0080F07D00D4A5368B6
:100FA40023F46053296943EAC1035360FFF724FF24
:100FB400084B5B68C3F30313074AD35CD840074B61
:100FC40018600020FFF72CF9002070BD0120FCE719
:100FD4000020024000100240F01D00080409002017
:100FE400014B1868704700BF0409002030B4036A3D
:100FF40023F001030362056A4268846924F07304E0
:101004000B681C4325F002058B682B43104DA84246
:1010140003D005F50065A84205D123F00803CD6887
:101024002B4323F004030A4DA84203D005F50065C1
:10103400A84205D122F440724D6915438A692A43B6
:10104400426084614A684263036230BC704700BFF7
:10105400002C014030B4036A23F480730362036AF2
:101064004268C46924F073040D682C4323F40073AC
:101074008D6843EA0523124DA84203D005F50065A7
:10108400A84206D123F40063CD6843EA052323F480
:1010940080630B4DA84203D005F50065A84207D133
:1010A40022F440524D6942EA05128D6942EA051262
:1010B4004260C4614A68C263036230BC704700BFC7
:1010C400002C014030B4036A23F480530362036AA2
:1010D4004468C26922F4E6420D6842EA052223F418
:1010E40000538D6843EA0533094DA84203D005F542
:1010F4000065A84204D124F480444D6944EA85146F
:101104004460C2614A680264036230BC704700BF35
:10111400002C014010B4036A046A24F00104046240
:10112400846924F0F00444EA021223F00A030B4316
:101134008261036210BC704710B4036A23F0100389
:1011440003628469036A24F4704444EA023223F09B
:10115400A00343EA01138261036210BC70478368F1
:1011640023F0700341F0070119438160704710B404
:10117400846824F47F4442EA03230B4323438360BB
:1011840010BC7047704790F83C30012B7DD010B5EF
:101194000446012380F83C30022380F83D30026885
:1011A400936823F47F4323F0770393600B68402B09
:1011B40057D010D9702B3ED01FD8502B47D0602B5E
:1011C40032D1CA6849680068FFF7B6FF6021206819
:1011D400FFF7C5FF28E0102B4DD008D9202B4FD0A6
:1011E400302B21D130210068FFF7B9FF1CE0DBB9B7
:1011F40000210068FFF7B3FF16E0B3F5805F0ED05F
:10120400B3F5005F10D1CB684A6889680068FFF7BE
:10121400AEFF2268936843F48043936004E002685D
:10122400936823F007039360012384F83D30002082
:1012340084F83C0010BDCB684A6889680068FFF7F1
:1012440096FF2268936843F077039360ECE7CA68DB
:1012540049680068FFF75EFF50212068FFF77FFFB1
:10126400E2E7CA6849680068FFF754FF4021206834
:10127400FFF775FFD8E710210068FFF770FFD3E789
:1012840020210068FFF76BFFCEE70220704770470C
:1012940070477047704710B5446A012384F83D30A5
:1012A400636A83420BD0A36A834210D0E36A834209
:1012B40010D0236B834204D10823237701E0012358
:1012C40023772046FFF7E6FF0023237710BD022390
:1012D4002377F6E704232377F3E7704710B5044632
:1012E40003681A6912F0020F11D0DA6812F0020FC3
:1012F4000DD06FF002021A610123037703689B6922
:1013040013F0030F70D0FFF7C4FF00232377236883
:101314001A6912F0040F12D0DA6812F0040F0ED01A
:101324006FF004021A610223237723689B6913F484
:10133400407F5FD02046FFF7ACFF0023237723686C
:101344001A6912F0080F12D0DA6812F0080F0ED0E2
:101354006FF008021A61042323772368DB6913F012
:10136400030F4ED02046FFF794FF00232377236812
:101374001A6912F0100F12D0DA6812F0100F0ED0A2
:101384006FF010021A61082323772368DB6913F4D2
:10139400407F3DD02046FFF77CFF0023237723685E
:1013A4001A6912F0010F03D0DA6812F0010F36D176
:1013B40023681A6912F0800F03D0DA6812F0800FE4
:1013C40034D123681A6912F0400F03D0DA6812F09E
:1013D400400F32D123681A6912F0200F03D0DA6863
:1013E40012F0200F30D110BDFFF752FF2046FFF757
:1013F40051FF8AE72046FFF74BFF2046FFF74AFFDD
:101404009BE72046FFF744FF2046FFF743FFACE786
:101414002046FFF73DFF2046FFF73CFFBDE76FF096
:1014240001021A612046FFF732FFC1E76FF0800224
:101434001A61204600F0FEF9C3E76FF040021A611A
:101444002046FFF74AFFC5E76FF020021A612046E5
:1014540000F0EFF9C7E7704708B5406A012380F848
:101464003D30FFF7F8FF08BD0368244A904212D0CC
:1014740002F5006290420ED0B0F1804F0BD0A2F57D
:101484009832904207D002F58062904203D002F570
:101494008062904203D123F070034A681343174AD1
:1014A400904212D002F5006290420ED0B0F1804F0B
:1014B4000BD0A2F59832904207D002F58062904298
:1014C40003D002F58062904203D123F44073CA68CA
:1014D400134323F080034A69134303608B68C36298
:1014E4000B688362054B984203D003F5006398426E
:1014F40001D10B690363012343617047002C014050
:10150400A8B110B5044690F83D305BB1022384F8CD
:101514003D30211D2068FFF7A7FF012384F83D30EB
:10152400002010BD80F83C3000F0D8FAEEE701202E
:101534007047A8B110B5044690F83D305BB1022362
:1015440084F83D30211D2068FFF78EFF012384F8C5
:101554003D30002010BD80F83C30FFF713FEEEE76D
:101564000120704730B4036A23F010030362036A56
:101574004468826922F4E6420D6842EA052223F0B7
:1015840020038D6843EA0513114DA84203D005F5E5
:101594000065A84206D123F08003CD6843EA051311
:1015A40023F040030A4DA84203D005F50065A84284
:1015B40007D124F440644D6944EA85048D6944EA02
:1015C4008504446082614A688263036230BC704768
:1015D400002C014038B590F83C30012B66D00D4604
:1015E4000446012380F83C30022380F83D300C2A65
:1015F4001AD8DFE802F00719191920191919341932
:10160400191947000068FFF7F1FC2268936943F059
:10161400080393612268936923F0040393612268A9
:10162400936929690B439361012384F83D300020B9
:1016340084F83C0038BD0068FFF794FF2268936982
:1016440043F4006393612268936923F48063936194
:1016540022689369296943EA01239361E4E70068F6
:10166400FFF7F8FC2268D36943F00803D3612268CA
:10167400D36923F00403D3612268D36929690B4336
:10168400D361D1E70068FFF71DFD2268D36943F4F5
:101694000063D3612268D36923F48063D361226831
:1016A400D369296943EA0123D361BDE70220C1E775
:1016B40010B4012303FA01F4036A23EA0403036266
:1016C400036A8A401343036210BC704770B590F8F4
:1016D4003D60F6B2022E7AD090F83D40E4B2012C7F
:1016E4000DD016460D4604460C2922D8DFE801F039
:1016F40010212121392121214B2121215D001AB101
:10170400022480F83D40ECE7002BF9D0012027E0CB
:10171400426A30499162426A2F4911630268343245
:101724003146406AFEF7BCFE2268D36843F4007376
:10173400D360012229462068FFF7BAFF2368274AAD
:10174400934203D002F50062934203D15A6C42F4EF
:1017540000425A642268136843F0010313600020B6
:1017640070BD826A1B499162826A1B4911630268D7
:1017740038323146806AFEF793FE2268D36843F418
:101784008063D360D5E7C26A12499162C26A124982
:10179400116302683C323146C06AFEF781FE22685A
:1017A400D36843F40063D360C3E7026B09499162D1
:1017B400026B09491163026840323146006BFEF73F
:1017C4006FFE2268D36843F48053D360B1E70220EC
:1017D400C6E700BF9B1200085D140008002C0140FE
:1017E40090F83C30012B22D030B4012280F83C2008
:1017F400022380F83D300468636823F0700363605B
:10180400046863680D682B4363600468A36823F06D
:101814008003A3600468A36849680B43A36080F84D
:101824003D20002380F83C30184630BC704702202D
:10183400704770477047000038B5054600240DE036
:101844000F4B196821440F4801EB4101421893786A
:101854005278415C204600F0E9F90134042CEFD9B8
:10186400074A1368013313601C4440F2FD239C4271
:1018740002D9134600221A602846FEF719FD38BD26
:10188400240900200800002082B00A4B9A6942F023
:1018940020029A619A6902F020020092009A9A69E1
:1018A40042F004029A619B6903F004030193019BD3
:1018B40002B070470010024000B583B00A4B5A6969
:1018C40042F001025A615B6903F001030193019B39
:1018D400002211461120FEF711FD1120FEF742FDF2
:1018E40003B05DF804FB00BF00100240FEE70000F7
:1018F40000B58FB025484FF0804303600123436057
:10190400002383602C22C26003618361FFF7F8FD2A
:1019140038BB0EA94FF4805341F8103D1B48FFF724
:1019240032FC10BB1948FFF704FE10BB00230893D8
:10193400099308A91548FFF753FFF0B960230193F1
:10194400002302930393059304220DEB02010F4835
:10195400FFF740FEA8B90D4800F002F90FB05DF89A
:1019640004FBBD210A48FFF7C1FFC3210848FFF764
:10197400BDFFC8210648FFF7B9FFCF210448FFF790
:10198400B5FFD8210248FFF7B1FF00BF700900205E
:10199400081E000800B591B0012206924FF480336E
:1019A4000793002108910A9202220D920E934FF49C
:1019B400E0130F9306A8FFF731F808BB0F23019338
:1019C40002210291002303934FF480620492059351
:1019D40001A8FFF749FAB8B9FFF702FB0C4BA3FBC8
:1019E40000308009FEF7CAFC0420FEF7DDFC00226B
:1019F40011464FF0FF30FEF781FC11B05DF804FB97
:101A040090210448FFF772FF9E210248FFF76EFF02
:101A1400D34D6210081E000808B5FEF725FCFFF739
:101A2400B9FFFFF731FFFFF747FFFFF761FF00F052
:101A340077F91E20FFF700FFFBE7000000B583B035
:101A4400244B9A6942F001029A619A6902F00102F8
:101A54000092009ADA6942F08052DA61DB6903F09D
:101A640080530193019B0320FEF736FC00221146AC
:101A74006FF00B00FEF742FC002211466FF00A00E3
:101A8400FEF73CFC002211466FF00900FEF736FC1D
:101A9400002211466FF00400FEF730FC00221146CC
:101AA4006FF00300FEF72AFC002211466FF00100DC
:101AB400FEF724FC002211464FF0FF30FEF71EFC17
:101AC400054A536823F0E06343F00073536003B0A6
:101AD4005DF804FB00100240000001400368B3F10C
:101AE400804F00D0704710B582B0044603F504332C
:101AF400DA6942F00102DA61DB6903F00103019360
:101B0400019B1448144B036010234360002383603B
:101B14008022C2604FF4007202614361202383611A
:101B24004FF40053C361FEF76BFC68B9094BA36221
:101B34005C622363002211461C20FEF7DFFB1C209D
:101B4400FEF710FC02B010BD6F210448FFF7CEFE73
:101B5400ECE700BF2C09002080000240181E00089A
:101B64000368B3F1804F00D0704700B585B00223FD
:101B7400009301930323039369460348FEF740FE51
:101B840005B05DF804FB00BF000801407047FEE7A4
:101B9400FEE7FEE7FEE770477047704708B5FEF7BB
:101BA40075FBFEF712FC08BD08B50248FEF7B2FC4F
:101BB40008BD00BF2C09002008B50248FFF78EFBC2
:101BC40008BD00BF700900200F4B1A6842F00102E3
:101BD4001A6059680D4A0A405A601A6822F08472E1
:101BE40022F480321A601A6822F480221A605A6839
:101BF40022F4FE025A604FF41F029A60044B4FF025
:101C040000629A60704700BF001002400000FFF8B5
:101C140000ED00E008B5DC23024A04210248FFF786
:101C240055FD08BDB00900207009002070B487B0CC
:101C3400284CA4FB0054A40804EB8404041B0020D7
:101C440005E01E2606AD054405F8186C013007288A
:101C540006D802FA00F515F0800FF2D03C26F1E721
:101C6400002207E01E2502F1080006AE304400F809
:101C7400185C0132072A06D801FA02F010F0800F2E
:101C8400F0D03C25EFE7002207E01E2002F110010E
:101C940006AD294401F8180C0132072A06D803FAC4
:101CA40002F111F0800FF0D03C20EFE700220BE0AE
:101CB40004EB4401CB001344323306A9114411F858
:101CC400180C0549C8540132172AF1D907B070BC61
:101CD400704700BFCDCCCCCCB0090020002303E07A
:101CE4000E4A0021D1540133312BF9D9002204E0EA
:101CF4000A491E20C85401330132772AF8D9074A09
:101D04001E21D1540133002204E004490020C854A8
:101D140001330132312AF8D9704700BFB0090020DD
:101D240008B5FFF7DBFFFFF775FF08BD002103E0EF
:101D34000B4B5B58435004310A480B4B42189A42F0
:101D4400F6D30A4A02E0002342F8043B084B9A42C5
:101D5400F9D3FFF739FF00F00FF8FFF75DFE704786
:101D64003C1E00080000002008090020080900208B
:101D74008C0A0020FEE7000070B500250C4E0D4CC7
:101D8400A41BA410A54209D100F01AF800250A4E9C
:101D94000A4CA41BA410A54205D170BD56F82530E9
:101DA40098470135EEE756F8253098470135F2E7B4
:101DB400341E0008341E0008341E0008381E0008B3
:101DC400F8B500BFF8BC08BC9E467047F8B500BF24
:081DD400F8BC08BC9E467047F4
:101DDC0002030405060708090A0B0C0D0E0F101060
:101DEC0001020000000000000000000001020304DA
:101DFC000607080900000000010203042E2E2F53D1
:101E0C0072632F6D61696E2E630000002E2E2F53AE
:101E1C0072632F73746D3332663178785F68616CDE
:081E2C005F6D73702E6300006E
:041E34000902000897
:041E3800E5010008B8
:101E3C000100000010000000FF0000FE0100FD0288
:101E4C0000FC0300FB0400FA0500F90600F807008B
:101E5C00F70800F60900F50A00F40B00F30C00F289
:101E6C000D00F10E00F00F00EF1000EE1100ED125E
:101E7C0000EC1300EB1400EA1500E91600E817005B
:101E8C00E71800E61900E51A00E41B00E31C00E269
:101E9C001D00E11E00E01F00DF2000DE2100DD221E
:101EAC0000DC2300DB2400DA2500D92600D827002B
:101EBC00D72800D62900D52A00D42B00D32C00D249
:101ECC002D00D12E00D02F00CF3000CE3100CD32DE
:101EDC0000CC3300CB3400CA3500C93600C83700FB
:101EEC00C73800C63900C53A00C43B00C33C00C229
:101EFC003D00C13E00C03F00BF4000BE4100BD429E
:101F0C0000BC4300BB4400BA4500B94600B84700CA
:101F1C00B74800B64900B54A00B44B00B34C00B208
:101F2C004D00B14E00B04F00AF5000AE5100AD525D
:101F3C0000AC5300AB5400AA5500A95600A857009A
:101F4C00A75800A65900A55A00A45B00A35C00A2E8
:101F5C005D00A15E00A05F009F60009E61009D621D
:101F6C00009C63009B64009A65009966009867006A
:101F7C00976800966900956A00946B00936C0092C8
:101F8C006D00916E00906F008F70008E71008D72DD
:101F9C00008C73008B74008A75008976008877003A
:101FAC00877800867900857A00847B00837C0082A8
:101FBC007D00817E00807F007F80007E81007D829D
:101FCC00007C83007B84007A85007986007887000A
:101FDC00778800768900758A00748B00738C007288
:101FEC008D00718E00708F006F90006E91006D925D
:101FFC00006C93006B94006A9500699600689700DA
:10200C00679800669900659A00649B00639C006267
:10201C009D00619E00609F005FA0005EA1005DA21C
:10202C00005CA3005BA4005AA50059A60058A700A9
:10203C0057A80056A90055AA0054AB0053AC005247
:10204C00AD0051AE0050AF004FB0004EB1004DB2DC
:10205C00004CB3004BB4004AB50049B60048B70079
:10206C0047B80046B90045BA0044BB0043BC004227
:10207C00BD0041BE0040BF003FC0003EC1003DC29C
:10208C00003CC3003BC4003AC50039C60038C70049
:10209C0037C80036C90035CA0034CB0033CC003207
:1020AC00CD0031CE0030CF002FD0002ED1002DD25C
:1020BC00002CD3002BD4002AD50029D60028D70019
:1020CC0027D80026D90025DA0024DB0023DC0022E7
:1020DC00DD0021DE0020DF001FE0001EE1001DE21C
:1020EC00001CE3001BE4001AE50019E60018E700E9
:1020FC0017E80016E90015EA0014EB0013EC0012C7
:10210C00ED0011EE0010EF000FF0000EF1000DF2DB
:10211C00000CF3000BF4000AF50009F60008F700B8
:10212C0007F80006F90005FA0004FB0003FC0002A6
:10213C00FD0001FE0000FF0000FE0100FD0200FC9E
:10214C000300FB0400FA0500F90600F80700F70885
:10215C0000F60900F50A00F40B00F30C00F20D0078
:10216C00F10E00F00F00EF1000EE1100ED1200EC7C
:10217C001300EB1400EA1500E91600E81700E71845
:10218C0000E61900E51A00E41B00E31C00E21D0048
:10219C00E11E00E01F00DF2000DE2100DD2200DC5C
:1021AC002300DB2400DA2500D92600D82700D72805
:1021BC0000D62900D52A00D42B00D32C00D22D0018
:1021CC00D12E00D02F00CF3000CE3100CD3200CC3C
:1021DC003300CB3400CA3500C93600C83700C738C5
:1021EC0000C63900C53A00C43B00C33C00C23D00E8
:1021FC00C13E00C03F00BF4000BE4100BD4200BC1C
:10220C004300BB4400BA4500B94600B84700B74884
:10221C0000B64900B54A00B44B00B34C00B24D00B7
:10222C00B14E00B04F00AF5000AE5100AD5200ACFB
:10223C005300AB5400AA5500A95600A85700A75844
:10224C0000A65900A55A00A45B00A35C00A25D0087
:10225C00A15E00A05F009F60009E61009D62009CDB
:10226C0063009B64009A6500996600986700976804
:10227C0000966900956A00946B00936C00926D0057
:10228C00916E00906F008F70008E71008D72008CBB
:10229C0073008B74008A75008976008877008778C4
:1022AC0000867900857A00847B00837C00827D0027
:1022BC00817E00807F007F80007E81007D82007C9B
:1022CC0083007B84007A8500798600788700778884
:1022DC0000768900758A00748B00738C00728D00F7
:1022EC00718E00708F006F90006E91006D92006C7B
:1022FC0093006B94006A9500699600689700679844
:10230C0000669900659A00649B00639C00629D00C6
:10231C00619E00609F005FA0005EA1005DA2005C5A
:10232C00A3005BA4005AA50059A60058A70057A803
:10233C000056A90055AA0054AB0053AC0052AD0096
:10234C0051AE0050AF004FB0004EB1004DB2004C3A
:10235C00B3004BB4004AB50049B60048B70047B8C3
:10236C000046B90045BA0044BB0043BC0042BD0066
:10237C0041BE0040BF003FC0003EC1003DC2003C1A
:10238C00C3003BC4003AC50039C60038C70037C883
:10239C000036C90035CA0034CB0033CC0032CD0036
:1023AC0031CE0030CF002FD0002ED1002DD2002CFA
:1023BC00D3002BD4002AD50029D60028D70027D843
:1023CC000026D90025DA0024DB0023DC0022DD0006
:1023DC0021DE0020DF001FE0001EE1001DE2001CDA
:1023EC00E3001BE4001AE50019E60018E70017E803
:1023FC000016E90015EA0014EB0013EC0012ED00D6
:10240C0011EE0010EF000FF0000EF1000DF2000CB9
:10241C00F3000BF4000AF50009F60008F70007F8C2
:10242C000006F90005FA0004FB0003FC0002FD00A5
:10243C0001FE0000FF0100FE0200FD0300FC040091
:10244C00FB0500FA0600F90700F80800F70900F68A
:10245C000A00F50B00F40C00F30D00F20E00F10F66
:10246C0000F01000EF1100EE1200ED1300EC140060
:10247C00EB1500EA1600E91700E81800E71900E66A
:10248C001A00E51B00E41C00E31D00E21E00E11F26
:10249C0000E02000DF2100DE2200DD2300DC240030
:1024AC00DB2500DA2600D92700D82800D72900D64A
:1024BC002A00D52B00D42C00D32D00D22E00D12FE6
:1024CC0000D03000CF3100CE3200CD3300CC340000
:1024DC00CB3500CA3600C93700C83800C73900C62A
:1024EC003A00C53B00C43C00C33D00C23E00C13FA6
:1024FC0000C04000BF4100BE4200BD4300BC4400D0
:10250C00BB4500BA4600B94700B84800B74900B609
:10251C004A00B54B00B44C00B34D00B24E00B14F65
:10252C0000B05000AF5100AE5200AD5300AC54009F
:10253C00AB5500AA5600A95700A85800A75900A6E9
:10254C005A00A55B00A45C00A35D00A25E00A15F25
:10255C0000A060009F61009E62009D63009C64006F
:10256C009B65009A660099670098680097690096C9
:10257C006A00956B00946C00936D00926E00916FE5
:10258C00009070008F71008E72008D73008C74003F
:10259C008B75008A760089770088780087790086A9
:1025AC007A00857B00847C00837D00827E00817FA5
:1025BC00008080007F81007E82007D83007C84000F
:1025CC007B85007A86007987007888007789007689
:1025DC008A00758B00748C00738D00728E00718F65
:1025EC00007090006F91006E92006D93006C9400DF
:1025FC006B95006A96006997006898006799006669
:10260C009A00659B00649C00639D00629E00619F24
:10261C000060A0005FA1005EA2005DA3005CA400AE
:10262C005BA5005AA60059A70058A80057A9005648
:10263C00AA0055AB0054AC0053AD0052AE0051AFE4
:10264C000050B0004FB1004EB2004DB3004CB4007E
:10265C004BB5004AB60049B70048B80047B9004628
:10266C00BA0045BB0044BC0043BD0042BE0041BFA4
:10267C000040C0003FC1003EC2003DC3003CC4004E
:10268C003BC5003AC60039C70038C80037C9003608
:10269C00CA0035CB0034CC0033CD0032CE0031CF64
:1026AC000030D0002FD1002ED2002DD3002CD4001E
:1026BC002BD5002AD60029D70028D80027D90026E8
:1026CC00DA0025DB0024DC0023DD0022DE0021DF24
:1026DC000020E0001FE1001EE2001DE3001CE400EE
:1026EC001BE5001AE60019E70018E80017E90016C8
:1026FC00EA0015EB0014EC0013ED0012EE0011EFE4
:10270C000010F0000FF1000EF2000DF3000CF400BD
:10271C000BF5000AF60009F70008F80007F90006A7
:10272C00FA0005FB0004FC0003FD0002FE0001FFA3
:08273C000000000000A24A04A5
:0400000508001D31A1
:00000001FF
